:020000040800F2
:10000000880700209D010008A1010008A301000845
:10001000A5010008A7010008A901000800000000D0
:10002000000000000000000000000000AB0100081C
:10003000AD01000800000000AF010008B101000898
:10004000B3010008B3010008B3010008B3010008C0
:10005000B3010008B3010008B3010008B3010008B0
:10006000B3010008B3010008B3010008B3010008A0
:10007000B3010008B3010008B3010008B301000890
:10008000B3010008B3010008B3010008B301000880
:10009000E10B0008B3010008B3010008B301000838
:1000A000B3010008490F0008B3010008B3010008BC
:1000B000B301000851100008B3010008B3010008A3
:1000C000B3010008B3010008B3010008B301000840
:1000D000B3010008AF050008B3010008B301000830
:1000E000B3010008B3010008B301000800F002F8F2
:1000F00000F03FF80AA090E8000C82448344AAF183
:100100000107DA4501D100F034F8AFF2090EBAE880
:100110000F0013F0010F18BFFB1A43F0010318473B
:10012000381A0000581A0000103A24BF78C878C165
:10013000FAD8520724BF30C830C144BF04680C60ED
:10014000704700000023002400250026103A28BF35
:1001500078C1FBD8520728BF30C148BF0B60704739
:10016000642901F02180002070471FB51FBD10B524
:1001700010BD01F0DFF81146FFF7F7FF00F02AF895
:1001800001F0FDF803B4FFF7F2FF03BC00F000FA42
:1001900030BF72B662B680F30888704708480047DF
:1001A000FEE7FEE7FEE7FEE7FEE7FEE7FEE7FEE727
:1001B000FEE7FEE703480449044A054B7047000088
:1001C000ED00000888010020880700208803002037
:1001D0008803002008B50024092000F028F94820F1
:1001E00000F07EF900F096FA00F0DEFD4FF4E13108
:1001F000482000F017FA0F231A4608210120009426
:1002000000F0A6FA09E005480068C0430449C1F8B7
:10021000B8014FF4FA7000F09BF9F4E7B88121427D
:1002200000802142A34A0A400243A34B1A60704750
:100230000146072323EA010212029F4B1B1D186887
:100240004FF6FF0318409D4B184310439A4B1B1D5C
:10025000186070472DE9F0410746884614461D4650
:100260002846FFF7E5FFC5F1040007FA00F60F2066
:10027000284100EA0800064306F00F06E21704EBE7
:10028000D2625211920002F1E022D2F800212146FE
:10029000E31704EBD3635B11A4EB431C012303FAC4
:1002A0000CF31A432046E31704EBD3635B119B0066
:1002B00003F1E023C3F800218148005D40EA061005
:1002C0007F490855BDE8F08170B504460B46CE174E
:1002D00001EB9676C6F38700CE1701EB9676B61043
:1002E000A1EB8606B606350E764B9B6943F00103FB
:1002F000744EB3614FEAB63353F820300F26AE4048
:10030000B343714E46F82030334653F8203004FA98
:1003100005F61E436C4B43F820606C4B1B680126AE
:100320008E403343694E336002F0010343B1674BA3
:100330000C331B6801268E403343644E0C36336009
:1003400002F0020343B1614B08331E6801238B4066
:100350001E435E4B08331E6070BD00B50020594936
:100360000861C8601420486100208861C86108469F
:10037000006840F0010008600846406854490840A1
:100380005049486008460068524908404D49086095
:100390000846006820F4802008600846406820F481
:1003A000FE0048600020886000214FF00060FFF7E9
:1003B00039FF00BD10B540480830006840F0040027
:1003C0003D49083108603F48C06940F080503D49D0
:1003D000C8614148406840F480703F494860084621
:1003E000006840F0040008600846006840F0020021
:1003F0000860FFF7CDFE10BD3048001D2E49091DD5
:1004000008607047014649062E4A926942F001028F
:100410002C4B9A612C4A083A526822F0E0622A4B2F
:10042000083B5A601A4652680A435A60704730B512
:1004300004460025FFF791FF2248006840F4803011
:100440002049086000BF1F480068400C0028FAD00F
:100450004FF480601B494860A01EC4B20846406843
:1004600040EA844048600846406840F48030486074
:100470001A48006840F032001849086011480068C6
:1004800040F080700F49086000BF0E480068400EC1
:100490000028FAD00B48406840F002000949486043
:1004A00005E008484068C0F3870505F00305022D04
:1004B000F7D130BD80FFFF1F08ED00E00000FA0516
:1004C00000E400E000100240080001400004014088
:1004D0000000FFF8FFFFF6FE007000400020024021
:1004E0004FF0E021096921F004014FF0E022116191
:1004F000C21700EB5272C2F3C702234B1A7019469F
:10050000097801EB4102C2EBC1114FF6FF7202EA1A
:10051000C1011E4A1180704701461B4A12784A43A6
:100520004FF0E0235A6100229A6101221A6100BF54
:100530004FF0E022106900F001021AB100F480329D
:10054000002AF5D000224FF0E0231A619A6170472B
:1005500001460E4A12884A434FF0E0235A610022B6
:100560009A6101221A6100BF4FF0E022106900F089
:1005700001021AB100F48032002AF5D000224FF0B7
:10058000E0231A619A6170470000002002000020F9
:10059000014600BF704700BF584A128802F040026F
:1005A000002AF9D0C2B2554B1B1D1A80704753491F
:1005B000098801F0200111B35049091D0988C8B20A
:1005C0004F49098801F40041C9B94D49098801F42E
:1005D000804161B10A2803D00021494A118020E0FE
:1005E0004749098841F40041454A118019E00D2826
:1005F00006D14349098841F48041414A118010E005
:100600003F490988C1F30D013E4A50543C490988CD
:10061000491C3B4A118011460988C72901DD002188
:10062000118070472DE9F05F05460E46300101F05C
:1006300033F98146344905FB01F001F02DF982467A
:10064000494601F047F80746384601F005F984B2FB
:10065000204601F021F98346394601F0FDF9824632
:100660004FF0834101F02CF9814601F0F5F8804606
:100670004FF6FF7000EA041404EB080084B223482C
:10068000806940F00400214988610846806940F48F
:10069000804088611E48006820F47F601C49086023
:1006A0000846006840F40B6008601848C06840F4D1
:1006B00080401649C8600846C06820F48040C86081
:1006C0000E4808300480001D008842F20C010843E7
:1006D0000A490C3108800846008840F48070088080
:1006E0000846008840F020000880022325220321CC
:1006F0000846FFF7AFFDBDE8F09F0000003801405D
:10070000080000201000002040420F0000100240AE
:10071000040801400C48806940F008000A498861DB
:100720000A48006820F070600849086008460068C0
:1007300040F04070086005480830006840F4804090
:10074000024908310860704700100240040C014063
:100750002DE9F04704460D4617461E46DDF8209069
:100760004FF0000814B10DB107B116B90120BDE872
:10077000F087601EC4B2681EC5B2781EC7B2701E74
:1007800086B2FE48806940F00400FC498861FC485C
:10079000006820F47F20FA4908600846006840F4A9
:1007A00038200860F6480830006840F4C050F4492A
:1007B00008310860F148C06940F00070EF49C86135
:1007C0000020F04908600846006840F00100086019
:1007D00008E008F101001FFA80F8B8F1640F01DDAC
:1007E0000220C4E7E748001D006800F0010000286F
:1007F000EFD0E4480068E3490860084600680860F4
:1008000008460068086008460068086008460068F6
:1008100008600846006808600020DA491C3108605A
:100820000846006840EA897008600846006840EAA7
:10083000046008600846006840EA05500860084601
:10084000006840EA074008600846006830430860D6
:10085000CC48006820F00100CA49086009E008F1AE
:1008600001001FFA80F84FF6F070804501DD03208B
:100870007DE7C448001D006800F001000028EED1AB
:10088000C148006840F00100BF490860BE481C3004
:10089000006820F00100BC491C310860BA480C30E7
:1008A000006840F00100B8490C310860B648001DEE
:1008B0000068B549091D0860B34814300068B249A2
:1008C000143108600020B049403108600021AE4872
:1008D00044300160AC481C30006840F00100AA4977
:1008E0001C310860A84800680020A7490860A54896
:1008F0001430006840F00200A2491431086002235D
:10090000142200210120FFF7A5FC00202FE7F0B5FD
:1009100005460E46059C9B480830006800F0806044
:1009200008B1002111E097480830006800F000602D
:1009300008B1012109E093480830006800F08050B8
:1009400008B1022101E0FF20F0BD00278E48803869
:1009500000EB011007601EB9C5F30A056D0502E042
:1009600025F06045ED008848803800EB01100068F4
:100970002843854F803F07EB011738608248803855
:1009800000EB0110006840EA86077F48803800EBE2
:10099000011007607C48803800EB0110006840EAD5
:1009A00042077948803800EB0110076003F00F031D
:1009B0007548803800EB0110406820F00F0772483E
:1009C000803800EB011047606F48803800EB011061
:1009D000406818436C4F803F07EB01177860E0795F
:1009E0000006A77940EA0740677940EA072720799F
:1009F00007436548803800EB0110C760E0780006C7
:100A0000A77840EA0740677840EA0720277838430C
:100A10005D4F803F07EB0117B8605B48803800EB03
:100A20000110006840F001075748803800EB0110C2
:100A30000760084688E70146002021B1012916D049
:100A400002293CD127E04F4A0832126802F0010225
:100A500010434C4A0832126802F002021043494A1D
:100A60000832126802F0806240EA126029E0454ACA
:100A70000832126802F001021043424A083212683A
:100A800002F0020210433F4A0832126802F000628C
:100A900040EA526015E03B4A0832126802F0010257
:100AA0001043384A0832126802F002021043354AF5
:100AB0000832126802F0805240EA926001E005209C
:100AC00000BF00BF7047014629B92E480C300068AE
:100AD00000F003007047012905D12A481030006852
:100AE00000F00300F6E70020F4E7F0B5DDE9055477
:100AF000254E503E06EB0016366806F004061670CA
:100B000016783EB9204E503E06EB00163668760D3C
:100B10000E6006E01C4E503E06EB00163668F608E6
:100B20000E60194E503E06EB0016366806F00206BF
:100B30001E70154E503E06EB0016766806F00F0646
:100B40002E70114E503E06EB0016B66826700E4E03
:100B5000503E06EB0016B668360A66700A4E503EE6
:100B600006EB0016B668360CA670074E503E06EB34
:100B70000016B668360EE670034E07E0001002401D
:100B8000040801400064004000660040503E06EB4F
:100B90000016F6682671574E06EB0016F668360A00
:100BA0006671544E06EB0016F668360CA671514E6F
:100BB00006EB0016F668360EE67130B94E4E366812
:100BC00046F020064C4F3E6009E0012807D14A4E0E
:100BD000361D366846F02006474F3F1D3E60F0BD8B
:100BE00000B589B007A803A904AB05AACDE9001098
:100BF00006A90020FFF779FF40A0069900F094FABB
:100C00009DF814103FA000F08FFA9DF8101040A03E
:100C100000F08AFA9DF80C1040A000F085FA9DF8CB
:100C20001C1041A000F080FA9DF81D1042A000F0B9
:100C30007BFA9DF81E1044A000F076FA9DF81F1074
:100C400045A000F071FA9DF8201047A000F06CFA62
:100C50009DF8211048A000F067FA9DF822104AA0E4
:100C600000F062FA9DF823104BA000F05DFA09B085
:100C700000BDF8B505460E46002433460022114655
:100C800020200095FFF743FE074601E0601C84B278
:100C90003846FFF7D0FE072803D040F6FF708442A5
:100CA000F4DB40F6FF70844201DB0120F8BD002038
:100CB000FCE710B586B004460020FFF704FF10B92A
:100CC000002006B010BD02A803AB04AA05A9CDE917
:100CD00000040020FFF709FF0598122805D19DF8B0
:100CE000100010B99DF80C0008B1002002909DF88A
:100CF0000800E6E7B06500400C64004069643A25EE
:100D0000640D0A006964653A25640D0A000000005C
:100D10007274723A25640D0A000000006C656E3A28
:100D200025640D0A0000000072786275665B305D14
:100D30003A25640D0A00000072786275665B315DC9
:100D40003A25640D0A00000072786275665B325DB8
:100D50003A25640D0A00000072786275665B335DA7
:100D60003A25640D0A00000072786275665B345D96
:100D70003A25640D0A00000072786275665B355D85
:100D80003A25640D0A00000072786275665B365D74
:100D90003A25640D0A00000072786275665B375D63
:100DA0003A25640D0A00000010B54848806940F0FB
:100DB0000C00464988614648006820F0FF0044491D
:100DC00008600846006840F0330008604148006849
:100DD000414908403F490860084600683F490843C8
:100DE0003C4908603A480830006820F440703849AF
:100DF0000831086037480C30006820F0320035496F
:100E00000C31086040F2CF2141F26F7000F078F8A9
:100E100040F2CF214FF6FF7000F0C2F810BD30B5A0
:100E2000014600220B882E4CA36200BF00200BE07D
:100E30002B4D441C55F8244045F820402C4654F8CE
:100E400020402244441CE0B20A28F1DB0A24B2FB11
:100E5000F4F40C8030BD2DE9F0412248007800F018
:100E6000800058B31F48007800F03F001E490880FA
:100E7000084600884FF6FF7101EA00401A490880D1
:100E80000846008819490988084417490880084617
:100E9000008800F0ACFA0646154A164B00F0BAFA84
:100EA000044600F077FA1049088000200D490870C8
:100EB00011480068C0431149C1F8B8010A48FFF75A
:100EC000AEFF09480088BDE8F08100000010024034
:100ED000040C0140000801400FFF00FF3000330008
:100EE000D80000200C0000200A0000200E00002086
:100EF000C3F5285C8FC2C53FB881214200802142E2
:100F000070B505460C467E48806940F400607C4917
:100F100088617C480580001F04807A48203800885A
:100F200040F0010077492039088076482C38008845
:100F300040F0010073492C39088002231922032153
:100F40000120FFF787F970BD10B56E481C38008886
:100F500000F00100D8B101206B4908606B49C1F86D
:100F600094016B490860091D086067490C390860E5
:100F70000C20FFF7D1FA002063490860091D0860C2
:100F800063490860091D08606049C1F884015D4833
:100F90001C38008820F001005A491C39088010BD17
:100FA00070B504460D465648C06940F002005449E9
:100FB000C8610846806940F00800886155480068AB
:100FC00020F0F000534908600846006840F08000B7
:100FD000086050480C3000684E490C3108604E489B
:100FE0000480001F05804C481038008840F4807051
:100FF0004949103908800846008840F4805008802C
:10100000084600880880081D0088091D08800846D9
:10101000008840F4805008803F482038008840F025
:1010200010003D49203908800846008840F0010042
:10103000088039482C38008840F0010036492C39A6
:10104000088002231D2200211846FFF703F970BD16
:1010500031491C3908883149097801F0800100299B
:1010600049D100F00101D1B12C49097801F04001CA
:10107000A9B12A49097801F03F013F290AD127493E
:10108000097841F08001254A11704FF6FF71244A1A
:10109000118004E021490978491C204A117000F0B0
:1010A000100141B31D49097801F0400199B11B4974
:1010B000097841F08001194A1170174914310988E3
:1010C000174A118014490C39098821F40051124A39
:1010D0000C3A11800FE00021114A118040210F4A83
:1010E000117000210C4A083A1180111F098841F43F
:1010F0000051121F11800021074A1C3A11807047CD
:10110000001002402C2C014090012142000021429D
:10111000A0812142000C01402C0400400C00002062
:101120000E000020704700000FB4044910B503AA58
:10113000029800F0D1F810BC5DF814FB0400002008
:101140002DE9F0410E460446002020622046E16869
:10115000884730B3252805D0D4E901219047206A7B
:10116000401CF2E7E168204600278847050018D0B8
:10117000A5F14100192802D820354FF40067324606
:10118000294620462760FEF7EBFF40B1012804D036
:10119000F61D26F007060836D8E7361DD6E728469E
:1011A000DAE7206ABDE8F0812DE9F0410646002427
:1011B00010687529314615A510D0AFF300800028BE
:1011C00002DA404212A507E031688A0701D511A56D
:1011D00002E0490704D510A5012401E0AFF3008027
:1011E00000210A2306F1240707E0B0FBF3F203FB1A
:1011F0001200303078541046491C0028F5D123469F
:101200002A463046BDE8F04100F00CB8000000006E
:101210002D0000002B0000002000000070477047E8
:10122000704770472DE9F0470D46994692460446AF
:1012300000F124080168880604D5E06921F0100156
:10124000216000E00120A84201DD471B00E00027EB
:10125000A1697A1902EB0900081AA0612078C0067A
:1012600002D42046AFF30080002608E0D4E9012133
:101270001AF806009047206A401C761C20624E45F2
:10128000F4DB2078C0060AD52046AFF3008006E0E4
:10129000D4E9012130209047206A401C2062381E8A
:1012A000A7F10107F4DC07E0D4E9012118F80500F3
:1012B0009047206A401C2062281EA5F10105F3DC3E
:1012C0002046AFF300802078000602D50220BDE85A
:1012D000F0870120FBE70000074B70B50D467B440B
:1012E00000F011F80446284600F020F810B14FF045
:1012F000FF3070BD204670BDB5F2FFFF01694A1C8A
:1013000002610878704700B58FB0CDE90131002146
:10131000059105497944CDE9031011466846FFF768
:101320000FFF0FB000BD0000E5FFFFFF007B00F0E6
:1013300080007047754600F029F8AE460500694602
:10134000534620F00700854618B020B5FEF732FF5F
:10135000BDE820404FF000064FF000074FF00008B6
:101360004FF0000B21F00701AC46ACE8C009ACE837
:10137000C009ACE8C009ACE8C0098D467047044616
:10138000AFF300802046FEF7FDFE000000487047E6
:10139000280100204FEA1153A3F58063D3F11E0307
:1013A000A8BFD3F1200C08DB4FF0004242EAC12273
:1013B00052EA505232FA03F0704709420BD4102B14
:1013C000C4BF0020704703F5787CBCF1FF3F05D017
:1013D0004FF0FF3070474FF00000704770B500F0DD
:1013E000C3F800BF4992248000207047F0E7B0FAAC
:1013F00080F310FA03F10AD0C3F11D0303F58063F3
:101400004FEA41504FEA035202EBD12170474FF0AF
:1014100000007047DFF848C170B51CEA111E1EBFFE
:101420001CEA13159EEA0C0F95EA0C0F00F06F8072
:1014300081EA030423EA4C134EEAD47E21EA4C11DC
:1014400041F4801143F48013AE44A1FB024CA0FB95
:101450000365AEF17F7E361955EB0C05A1FB034CFD
:101460004CF10003A0FB021C16EB0C06654153F186
:101470000003094218BF46F0010613F4007F0BD1A8
:101480004FEA03314FEA0530340341EA155140EA8F
:1014900016506FF003020AE04FEAC3214FEAC5205D
:1014A000F40241EA555140EA56506FF0020202EB55
:1014B0002E4201EB025585EACE710AD05FEA440C58
:1014C00018BF24F0004450F1000041F1000120EA6F
:1014D000D47040F2FE7C624500D270BDA84214BFB9
:1014E0004FF080444FF04044002E08BF0024BEF16E
:1014F000806FA8BFA1F1C041BDE8704080F282803A
:101500004FF0000001F1C04101F0004170479EEA38
:101510000C0F0CEA131518BF95EA0C0F06D04FF00C
:10152000000081EA030E0EF0004170BD00F01CF8CF
:101530008900013E00F007B800F009B84FEA430CFB
:101540005FEA5C5C08D081EA030100F05BB84FEA17
:10155000410C5FEA5C5CF6D14FF000000149704736
:101560000000FF070000F87F0EF1020E2EF0030EC0
:101570005EF8046B364205D4012A43EB030515F5EA
:10158000001F12D8012841EB010C1CF5001F0CD8DC
:101590000ED14FEAD17C15F5001F0CEB4C0C0CF171
:1015A000020C08BF4CEBD37C04E04FF0080C01E0C8
:1015B0004FEAD37C0CEB4C0526FA05F606F007063D
:1015C000B6F1040C06D20EEB860CBDE870404CF070
:1015D000010C6047DFE80CF0090B02024FF00041FC
:1015E0004FF00000A1F5002170BD194610460128FA
:1015F00051EB010418BFD4F5001484BF002001F0A2
:10160000004170BD0808A0F500114FEA3101704794
:1016100090EA010F48BF81F0004100F12E82421A8A
:101620003CBF801A89184FEAD0524FF07F4C1CEA19
:10163000410FA2EBD15318BF9CEA026F00F03B8030
:101640004FF0004C4CEA00204CEA012121FA03FC47
:1016500010EB0C0C1ED202F1FF325FEA1C2040EBB3
:10166000C25038BF70471CF07F0F4FEA400C18BFC4
:10167000BCF17F4F38BF7047C3F12003994008BFCA
:1016800020F00100BCF17F4F38BF7047A0F1C0408F
:1016900000F0DDB94FEA3C00000A40EBC25028BF21
:1016A0001CF0FF0F4FEA400CE6D018BFBCF17F4F93
:1016B00038BF7047EAE79CEA026F05D010EA5C0F7A
:1016C00008BF00F00040704710B500F07AF900BF85
:1016D00064FBBE3E4FF47F0C1CEAD0121EBF1CEA16
:1016E000D11392EA0C0F93EA0C0F00F0858090EA78
:1016F000010F48BF42F4807240F4000C41F4000036
:101700002CF07F4120F07F4000B58142A2EB030224
:101710000FF2081CACEB504EC0F100009EF800E048
:101720004FEA4E0E00FB0EFC38BF49004FEA2C1C5E
:1017300002F5FA020CFB0EF34FEACE1E4FEA112C13
:101740004FEAC1210EEB635E42EB22420EFB0CFC22
:101750004FEA1C5300FB03114FEA112C4FEA0131F1
:101760000EFB0CFC4FEADC4C00FB0C11C14228BF05
:1017700009184CEB03335DF804EB10EB410143EB2C
:10178000C250B2F57C0F38BF704729D512F0F00F68
:101790001CBF00F1C04000F0004070470081828310
:1017A0008485868788898B8C8D8E8F919293959670
:1017B00097999A9C9D9FA0A2A3A5A7A8AAACAEB0FA
:1017C000B2B3B5B7B9BCBEC0C2C5C7C9CCCED1D4FF
:1017D000D7D9DCDFE2E6E9ECF0F3F7FAFE0000002F
:1017E0004FEA400C0CF1807CBCF17E4F28BF704763
:1017F000B0F1C04000F02BB990EA010F0CEAD11310
:1018000048BF42F48072624538BF634507D213F483
:101810007F0F16D080EA010000F00040704710B53D
:1018200000F0CFF8097EFC3E00F005B880EA010028
:1018300000F00040704780EA010000F0004000F036
:1018400006B912F47F0F04BF0248704780EA010016
:1018500000F0FDB80000C07FC10DD1F19E0206DB93
:101860004FEA002343F0004323FA02F0704700429E
:1018700007D54FEA4001B1F1FE4F02D24FF0000010
:10188000704710B500F09DF8499224800020704701
:101890006FEA200070470000B0FA80F310FA03F2FC
:1018A000C3F19D030AD0D90501EB1220530638BFBE
:1018B000704700F1010008BF20F0010070470000F0
:1018C0004FF47F0C1CEAD0121EBF1CEAD11392EA1F
:1018D0000C0F93EA0C0F00F0478090EA010F48BF0D
:1018E00042F480724FF0004C4CEA00204CEA012197
:1018F00002EB0302A0FB0113A2F50002002918BFAE
:1019000043F001035B0028BF4FEA330342EB22425E
:101910005FEA132C4CEBC2502EBFBCEB436FB2F509
:101920007C0F70474FEA036CBCF1004F08BF20F0FA
:101930000100B2F57C0F38BF70470BD582F0FF0273
:1019400012F5803FC8BF704700F1C040D8BF00F01B
:101950000040704700F5000C5FEA4C0C48BF704730
:10196000B0F1C04000F073B890EA010F0CEAD11357
:1019700048BF42F48072624538BF634504D280EAB2
:10198000010000F00040704710B500F01AF800BFE9
:101990008900013E00F007B800F009B85FEA410C89
:1019A0005FEA1C6C08D080EA010000F050B85FEAE2
:1019B000400C5FEA1C6CF6D14FF00040A0F58000AF
:1019C00070470EF1020E2EF0030E5EF8044B244217
:1019D00004D44FEA4102B2F17F4F11D84FEA4003DD
:1019E000B3F17F4F0CD80ED14FEAD07CB2F17F4FCC
:1019F0000CEB4C0C0CF1020C08BF4CEBD17C04E05E
:101A00004FF0080C01E04FEAD17C0CEB4C0324FAB8
:101A100003F404F00704B4F1040C06D20EEB840CBA
:101A2000BDE810404CF0010C6047DFE80CF00708FF
:101A300002024FF00040A0F5800010BD08464200B1
:101A400018BFD2F1807288BF00F0004010BDFF21A6
:101A500041EAD050C005704780F0004090EA010F85
:101A60007FF5DDAD81F0004100F007B890EA010F8D
:101A700048BF81F000413FF5D2AD421A04D882F050
:101A80000042A0EB020011444FEAD0524FF07F4CCD
:101A90001CEA410FA2EBD15318BF9CEA026F4AD057
:101AA0004FF0004C4CEA00204CEA012121FA03FCE3
:101AB000B0EB0C0C0FD412F0FE0F36D05FEA4C00E6
:101AC0001DD5001240EBC25038BF70471CF03F0FCD
:101AD00018BF70470BE0A2F101025FEA1C2040EB47
:101AE000C25038BF70471CF07F0F18BF7047C3F15A
:101AF0002003994014BF401E20F001007047800869
:101B00004FEA122308BF7047B0FA80FCA2EB0C0228
:101B1000CCF1280C60FA0CF093EA122F04BF00EB12
:101B2000C25070474FEAC3707047130A5FEADC1077
:101B300008BF7047F6E79CEA026F04D010EA5C0F1A
:101B400008BF0020704710B5FFF73BFF40DFF63EAF
:101B500081F0004070470000781B00080000002062
:101B60001000000028010008881B00081000002059
:101B70007807000044010008000000000000000099
:081B800000000000000000005D
:04000005080000ED02
:00000001FF
